:020000040800F2
:10000000000002203D3E0008553400085734000827
:10001000593400085B3400085D340008000000001B
:10002000000000000000000000000000B16D0008AA
:100030005F34000800000000516E0008B56E000833
:100040008D3E00088D3E00088D3E00088D3E000864
:100050008D3E00088D3E00088D3E00088D3E000854
:100060008D3E00088D3E00088D3E00088D3E000844
:10007000613400088D3E0008713400088D3E000890
:1000800081340008913400088D3E00088D3E000840
:10009000A13400088D3E00088D3E00088D3E00080A
:1000A0008D3E00088D3E00088D3E00088D3E000804
:1000B0008D3E00088D3E00088D3E00088D3E0008F4
:1000C0008D3E00088D3E00088D3E00088D3E0008E4
:1000D0008D3E0008B1340008C13400083D350008E9
:1000E0008D3E00088D3E00088D3E00088D3E0008C4
:1000F0008D3E00088D3E00088D3E00088D3E0008B4
:100100008D3E00088D3E00088D3E00088D3E0008A3
:100110008D3E00088D3E00088D3E00089135000898
:100120008D3E0008A13500088D3E00088D3E000878
:100130008D3E00088D3E00088D3E00088D3E000873
:10014000B13500088D3E00088D3E00088D3E000848
:100150008D3E0008C1350008D1350008E1350008A2
:100160008D3E00088D3E00088D3E00088D3E000843
:100170008D3E00088D3E00088D3E00080000000006
:080180008D3E00088D3E0008D1
:1001C00010B5054C237833B9044B13B10448AFF391
:1001D00000800123237010BD480A002000000000A9
:1001E00010E8000808B5034B1BB103490348AFF3FF
:1001F000008008BD000000004C0A002010E8000844
:1002000081F0004102E000BF83F0004330B54FEAC7
:1002100041044FEA430594EA050F08BF90EA020F34
:100220001FBF54EA000C55EA020C7FEA645C7FEAC7
:10023000655C00F0E2804FEA5454D4EB5555B8BFEA
:100240006D420CDD2C4480EA020281EA030382EA5B
:10025000000083EA010180EA020281EA0303362DED
:1002600088BF30BD11F0004F4FEA01314FF4801CC0
:100270004CEA113102D0404261EB410113F0004FD2
:100280004FEA03334CEA133302D0524263EB430389
:1002900094EA050F00F0A780A4F10104D5F1200E27
:1002A0000DDB02FA0EFC22FA05F2801841F1000182
:1002B00003FA0EF2801843FA05F359410EE0A5F156
:1002C00020050EF1200E012A03FA0EFC28BF4CF087
:1002D000020C43FA05F3C01851EBE37101F000453D
:1002E00007D54FF0000EDCF1000C7EEB00006EEB4A
:1002F0000101B1F5801F1BD3B1F5001F0CD34908D4
:100300005FEA30004FEA3C0C04F101044FEA44522A
:1003100012F5800F80F09A80BCF1004F08BF5FEAB1
:10032000500C50F1000041EB045141EA050130BD91
:100330005FEA4C0C404141EB0101013C28BFB1F5A3
:10034000801FE9D291F0000F04BF01460020B1FAEE
:1003500081F308BF2033A3F10B03B3F120020CDAC1
:100360000C3208DD02F1140CC2F10C0201FA0CF09F
:1003700021FA02F10CE002F11402D8BFC2F1200C04
:1003800001FA02F120FA0CFCDCBF41EA0C019040BA
:10039000E41AA2BF01EB0451294330BD6FEA040403
:1003A0001F3C1CDA0C340EDC04F11404C4F12002EE
:1003B00020FA04F001FA02F340EA030021FA04F300
:1003C00045EA030130BDC4F10C04C4F1200220FA57
:1003D00002F001FA04F340EA0300294630BD21FA95
:1003E00004F0294630BD94F0000F83F4801306BF5B
:1003F00081F480110134013D4EE77FEA645C18BF4F
:100400007FEA655C29D094EA050F08BF90EA020FE5
:1004100005D054EA000C04BF1946104630BD91EADD
:10042000030F1EBF0021002030BD5FEA545C05D1E0
:100430004000494128BF41F0004130BD14F580041F
:100440003CBF01F5801130BD01F0004545F0FE4193
:1004500041F470014FF0000030BD7FEA645C1ABFC8
:10046000194610467FEA655C1CBF0B46024650EAFF
:10047000013406BF52EA033591EA030F41F400212B
:1004800030BD00BF90F0000F04BF0021704730B5B1
:100490004FF4806404F132044FF000054FF0000186
:1004A00050E700BF90F0000F04BF0021704730B547
:1004B0004FF4806404F1320410F0004548BF40421C
:1004C0004FF000013EE700BF42004FEAE2014FEA71
:1004D00031014FEA02701FBF12F07F4393F07F4F4C
:1004E00081F06051704732F07F4208BF704793F04F
:1004F0007F4F04BF41F40021704730B54FF4607462
:1005000001F0004521F000411CE700BF50EA010264
:1005100008BF704730B54FF000050AE050EA01020D
:1005200008BF704730B511F0004502D5404261EB7D
:1005300041014FF4806404F132045FEA915C3FF4BE
:10054000D8AE4FF003025FEADC0C18BF03325FEA5B
:10055000DC0C18BF033202EBDC02C2F1200300FA0C
:1005600003FC20FA02F001FA03FE40EA0E0021FA31
:1005700002F11444BDE600BF53B94AB9002908BFCF
:1005800000281CBF4FF0FF314FF0FF3000F074B96E
:10059000ADF1080C6DE904CE00F006F8DDF804E0DA
:1005A000DDE9022304B070472DE9F047089D0446B9
:1005B0008E46002B4DD18A42944669D9B2FA82F216
:1005C00052B101FA02F3C2F1200120FA01F10CFA52
:1005D00002FC41EA030E94404FEA1C48210CBEFB8A
:1005E000F8F61FFA8CF708FB16E341EA034306FB13
:1005F00007F199420AD91CEB030306F1FF3080F0A2
:100600001F81994240F21C81023E63445B1AA4B2EE
:10061000B3FBF8F008FB103344EA034400FB07F790
:10062000A7420AD91CEB040400F1FF3380F00A81D1
:10063000A74240F207816444023840EA0640E41BC6
:1006400000261DB1D4400023C5E900433146BDE872
:10065000F0878B4209D9002D00F0EF800026C5E914
:10066000000130463146BDE8F087B3FA83F6002E2C
:100670004AD18B4202D3824200F2F980841A61EBA4
:10068000030301209E46002DE0D0C5E9004EDDE7C2
:1006900002B9FFDEB2FA82F2002A40F09280A1EBAA
:1006A0000C014FEA1C471FFA8CFE0126200CB1FBFF
:1006B000F7F307FB131140EA01410EFB03F08842F8
:1006C00008D91CEB010103F1FF3802D2884200F285
:1006D000CB804346091AA4B2B1FBF7F007FB101117
:1006E00044EA01440EFB00FEA64508D91CEB0404B5
:1006F00000F1FF3102D2A64500F2BB800846A4EB10
:100700000E0440EA03409CE7C6F12007B34022FAFA
:1007100007FC4CEA030C20FA07F401FA06F31C4329
:10072000F9404FEA1C4900FA06F3B1FBF9F8200C36
:100730001FFA8CFE09FB181140EA014108FB0EF07C
:10074000884202FA06F20BD91CEB010108F1FF3ACC
:1007500080F08880884240F28580A8F102086144D8
:10076000091AA4B2B1FBF9F009FB101144EA0141E6
:1007700000FB0EFE8E4508D91CEB010100F1FF3491
:100780006CD28E456AD90238614440EA0840A0FB29
:100790000294A1EB0E01A142C846A64656D353D0FF
:1007A0005DB1B3EB080261EB0E0101FA07F722FA23
:1007B00006F3F1401F43C5E9007100263146BDE84C
:1007C000F087C2F12003D8400CFA02FC21FA03F3AF
:1007D000914001434FEA1C471FFA8CFEB3FBF7F030
:1007E00007FB10360B0C43EA064300FB0EF69E4255
:1007F00004FA02F408D91CEB030300F1FF382FD2EE
:100800009E422DD9023863449B1B89B2B3FBF7F695
:1008100007FB163341EA034106FB0EF38B4208D96E
:100820001CEB010106F1FF3816D28B4214D9023EAF
:100830006144C91A46EA004638E72E46284605E7CD
:100840000646E3E61846F8E64B45A9D2B9EB02089E
:1008500064EB0C0E0138A3E74646EAE7204694E72E
:100860004046D1E7D0467BE7023B614432E7304661
:1008700009E76444023842E7704700BF844641EA12
:10088000000313F003036DD1403A41D351F8043B08
:1008900040F8043B51F8043B40F8043B51F8043B5A
:1008A00040F8043B51F8043B40F8043B51F8043B4A
:1008B00040F8043B51F8043B40F8043B51F8043B3A
:1008C00040F8043B51F8043B40F8043B51F8043B2A
:1008D00040F8043B51F8043B40F8043B51F8043B1A
:1008E00040F8043B51F8043B40F8043B51F8043B0A
:1008F00040F8043B51F8043B40F8043B51F8043BFA
:1009000040F8043B51F8043B40F8043B403ABDD268
:10091000303211D351F8043B40F8043B51F8043B0A
:1009200040F8043B51F8043B40F8043B51F8043BC9
:1009300040F8043B103AEDD20C3205D351F8043B99
:1009400040F8043B043AF9D2043208D0D2071CBF65
:1009500011F8013B00F8013B01D30B88038060468E
:10096000704700BF082A13D38B078DD010F0030304
:100970008AD0C3F10403D21ADB071CBF11F8013B74
:1009800000F8013B80D331F8023B20F8023B7BE7C3
:10099000043AD9D3013A11F8013B00F8013BF9D2EE
:1009A0000B7803704B7843708B7883706046704788
:1009B00001F0FF01102A2BDB10F0070F08D010F810
:1009C000013B013A8B422DD010F0070F42B3F6D114
:1009D000F0B441EA012141EA014122F007047FF02D
:1009E00000070023F0E80256083C85EA010586EA84
:1009F000010685FA47F5A3FA87F586FA47F6A5FAC0
:100A000087F68EB9EED1F0BC01F0FF0102F00702CB
:100A100032B110F8013B013A83EA010313B1F8D176
:100A20000020704701387047002D06BF3546033857
:100A3000073815F0010F07D1013015F4807F02BF90
:100A4000013015F4C03F0130F0BC0138704700BFE1
:100A50000000000000000000000000000000000096
:100A60000000000000000000000000000000000086
:100A70000000000000000000000000000000000076
:100A800090F800F06DE9024520F007016FF0000CCE
:100A900010F0070491F820F040F049804FF0000476
:100AA0006FF00700D1E9002391F840F000F1080051
:100AB00082FA4CF2A4FA8CF283FA4CF3A2FA8CF389
:100AC0004BBBD1E9022382FA4CF200F10800A4FAF0
:100AD0008CF283FA4CF3A2FA8CF3E3B9D1E9042344
:100AE00082FA4CF200F10800A4FA8CF283FA4CF37B
:100AF000A2FA8CF37BB9D1E9062301F1200182FA35
:100B00004CF200F10800A4FA8CF283FA4CF3A2FA3A
:100B10008CF3002BC6D0002A04BF04301A4612BA48
:100B2000B2FA82F2FDE8024500EBD2007047D1E94B
:100B3000002304F00305C4F100004FEAC50514F0DA
:100B4000040F91F840F00CFA05F562EA05021CBFAB
:100B500063EA050362464FF00004A9E770B54FF061
:100B6000FF0C4CF4E06C1CEA11541DBF1CEA135539
:100B700094EA0C0F95EA0C0F00F0DEF82C4481EAA1
:100B8000030621EA4C5123EA4C5350EA013518BFC1
:100B900052EA033541F4801143F4801338D0A0FBAE
:100BA00002CE4FF00005E1FB02E506F00042E0FB5B
:100BB00003E54FF00006E1FB03569CF0000F18BF61
:100BC0004EF0010EA4F1FF04B6F5007F64F5407409
:100BD00004D25FEA4E0E6D4146EB060642EAC6219C
:100BE00041EA55514FEAC52040EA5E504FEACE2E09
:100BF000B4F1FD0C88BFBCF5E06F1ED8BEF1004F0C
:100C000008BF5FEA500E50F1000041EB045170BD87
:100C100006F0004646EA010140EA020081EA0301CB
:100C2000B4EB5C04C2BFD4EB0C0541EA045170BDC7
:100C300041F480114FF0000E013C00F3AB8014F141
:100C4000360FDEBF002001F0004170BDC4F100048A
:100C5000203C35DA0C341BDC04F11404C4F120050B
:100C600000FA05F320FA04F001FA05F240EA020066
:100C700001F0004221F0004110EBD37021FA04F69C
:100C800042EB06015EEA430E08BF20EAD37070BD56
:100C9000C4F10C04C4F1200500FA04F320FA05F0B5
:100CA00001FA04F240EA020001F0004110EBD370B7
:100CB00041F100015EEA430E08BF20EAD37070BD27
:100CC000C4F1200500FA05F24EEA020E20FA04F300
:100CD00001FA05F243EA020321FA04F001F00041AF
:100CE00021FA04F220EA020000EBD3705EEA430E20
:100CF00008BF20EAD37070BD94F0000F0FD101F04F
:100D00000046400041EB010111F4801F08BF013C87
:100D1000F7D041EA060195F0000F18BF704703F0C5
:100D20000046520043EB030313F4801F08BF013D4C
:100D3000F7D043EA0603704794EA0C0F0CEA135508
:100D400018BF95EA0C0F0CD050EA410618BF52EAC2
:100D50004306D1D181EA030101F000414FF00000C8
:100D600070BD50EA410606BF1046194652EA4306D6
:100D700019D094EA0C0F02D150EA013613D195EA4A
:100D80000C0F05D152EA03361CBF104619460AD192
:100D900081EA030101F0004141F0FE4141F470019C
:100DA0004FF0000070BD41F0FE4141F4780170BD8C
:100DB00070B54FF0FF0C4CF4E06C1CEA11541DBFF1
:100DC0001CEA135594EA0C0F95EA0C0F00F0A7F8F3
:100DD000A4EB050481EA030E52EA03354FEA013120
:100DE00000F088804FEA03334FF0805545EA131333
:100DF00043EA12634FEA022245EA111545EA1065FB
:100E00004FEA00260EF000419D4208BF964244F191
:100E1000FD0404F5407402D25B084FEA3202B61AB0
:100E200065EB03055B084FEA32024FF480104FF484
:100E3000002CB6EB020E75EB030E22BFB61A7546F8
:100E400040EA0C005B084FEA3202B6EB020E75EB8B
:100E5000030E22BFB61A754640EA5C005B084FEAF3
:100E60003202B6EB020E75EB030E22BFB61A7546C0
:100E700040EA9C005B084FEA3202B6EB020E75EBCB
:100E8000030E22BFB61A754640EADC0055EA060E8C
:100E900018D04FEA051545EA16754FEA06164FEACF
:100EA000C30343EA52734FEAC2025FEA1C1CC0D17B
:100EB00011F4801F0BD141EA00014FF000004FF008
:100EC000004CB6E711F4801F04BF01430020B4F1C9
:100ED000FD0C88BFBCF5E06F3FF6AFAEB5EB030C81
:100EE00004BFB6EB020C5FEA500C50F1000041EB7E
:100EF000045170BD0EF0004E4EEA113114EB5C044B
:100F0000C2BFD4EB0C0541EA045170BD41F480111D
:100F10004FF0000E013C90E645EA060E8DE60CEA25
:100F2000135594EA0C0F08BF95EA0C0F3FF43BAF42
:100F300094EA0C0F0AD150EA01347FF434AF95EAF9
:100F40000C0F7FF425AF104619462CE795EA0C0FDD
:100F500006D152EA03353FF4FDAE1046194622E7AA
:100F600050EA410618BF52EA43067FF4C5AE50EA84
:100F700041047FF40DAF52EA43057FF4EBAE12E774
:100F80004FF0FF3C06E000BF4FF0010C02E000BF55
:100F90004FF0010C4DF804CD4FEA410C7FEA6C5C38
:100FA0004FEA430C18BF7FEA6C5C1BD001B050EADB
:100FB000410C0CBF52EA430C91EA030F02BF90EAC6
:100FC000020F0020704710F1000F91EA030F58BF85
:100FD000994208BF90422CBFD8176FEAE37040F0E7
:100FE000010070474FEA410C7FEA6C5C02D150EA85
:100FF000013C07D14FEA430C7FEA6C5CD6D152EA40
:10100000033CD3D05DF8040B704700BF8446104604
:1010100062468C461946634600E000BF01B5FFF703
:10102000B7FF002848BF10F1000F01BD4DF808EDD3
:10103000FFF7F4FF0CBF012000205DF808FB00BFA4
:101040004DF808EDFFF7EAFF34BF012000205DF8FE
:1010500008FB00BF4DF808EDFFF7E0FF94BF01204B
:1010600000205DF808FB00BF4DF808EDFFF7CEFF4C
:1010700094BF012000205DF808FB00BF4DF808ED8B
:10108000FFF7C4FF34BF012000205DF808FB00BF5C
:101090004FEA410C7FEA6C5C02D150EA013C0AD174
:1010A0004FEA430C7FEA6C5C02D152EA033C02D166
:1010B0004FF0000070474FF0010070474FEA4102C7
:1010C00012F5001215D211D56FF47873B3EB62529A
:1010D00012D94FEAC12343F0004343EA505311F0C1
:1010E000004F23FA02F018BF404270474FF0000053
:1010F000704750EA013005D111F0004008BF6FF091
:10110000004070474FF00000704700BF00B585B049
:101110008DF80E1040F6FF73009301230DF10F02BE
:101120000DF10E01054804F0FAFA10B1FF238DF815
:101130000F309DF80F0005B05DF804FB3C10002057
:10114000F8B504460D460B4E00221021304603F040
:101150007FFE094F21463846FFF7D8FF044629464F
:101160003846FFF7D3FF01221021304603F070FE0E
:101170002046F8BD000002403C10002070B5044637
:101180000B4D00221021284603F062FE094E214635
:101190003046FFF7BBFFFF213046FFF7B7FF04469D
:1011A00001221021284603F053FE204670BD00BFE7
:1011B000000002403C100020F8B504460E461546DB
:1011C000002210210C4803F043FE21460B48FFF794
:1011D0009DFF0746002406E0FF210848FFF796FF21
:1011E00030550134E4B2AC42F6D30122102102485A
:1011F00003F02EFE3846F8BD000002403C100020EF
:10120000F8B505460C461646002210210C4803F09E
:101210001FFE29460B48FFF779FF0746002506E029
:1012200014F8011B0748FFF771FF0135EDB2B54215
:10123000F6D301221021024803F00AFE3846F8BD19
:10124000000002403C10002000B583B0124B93E830
:10125000030000908DF80410052269463020FFF746
:10126000CFFF052269461020FFF7A6FF0023042BBD
:1012700009D803F108026A4412F8082CA52A02D101
:101280000133DBB2F3E7052B03D1002003B05DF897
:1012900004FB0120FAE700BF60E9000838B5054605
:1012A0000720FFF76BFF044601462720FFF748FFA2
:1012B00014F0400F01D1012038BD2146064801F04D
:1012C00017FE0A2229466120FFF776FFFF21E22060
:1012D000FFF736FF0020EFE768E9000810B5184C6B
:1012E00000220121204603F0B3FD052215492A20E2
:1012F000FFF786FF01212120FFF722FF0121222095
:10130000FFF71EFF17212520FFF71AFF0A213120C2
:10131000FFF716FF07212620FFF712FF0F212020DD
:10132000FFF70EFF01221146204603F091FD072032
:10133000FFF724FF01462720FFF702FF10BD00BF83
:10134000000402400000002070470000D0ED017A48
:10135000B6EE004A67EE847AD0ED026ADFED1C5AE1
:1013600066EEA56A9FED1B6A86EE867A77EE877A2F
:10137000C1ED007AD0ED006AFEEE004A66EEA46A86
:1013800090ED025A25EE255AC5EE067A76EEA76A4A
:10139000C1ED026A90ED007A27EE047AD0ED026A80
:1013A00066EEA56AC6EE867A37EE277A81ED017A77
:1013B000D0ED017A67EEA47A90ED027A67EE255AB5
:1013C00085EE867A77EE877AC1ED037A704700BFA3
:1013D000DD7E3C4200008C425E4B1B68012B39D005
:1013E000D1ED007AF5EEC07AF1EE10FA06DD91ED5E
:1013F000017AB5EEC07AF1EE10FA39D4D1ED007A67
:10140000F5EEC07AF1EE10FA4AD4D1ED007AF5EE9D
:10141000C07AF1EE10FA11DD91ED017AB5EEC07AE5
:10142000F1EE10FA0ADDD0ED046A27EE267AF4EE2A
:10143000C77AF1EE10FA54DD81ED007AD1ED007A31
:10144000F5EEC07AF1EE10FA55D4424B1B68012B31
:101450006ED07047404BD3ED007AF1EE677AC3ED62
:10146000007AD3ED017AF1EE677AC3ED017AB7E73E
:10147000D0ED046A27EE667AF4EEC77AF1EE10FA40
:1014800002DD81ED007AB9E7F4EEC77AF1EE10FAE9
:10149000B4D5F1EE677A87EEA67A81ED017AADE7F1
:1014A00091ED017AB5EEC07AF1EE10FAADDDF1EE14
:1014B000677AD0ED046A27EE266AF4EEC67AF1EE7A
:1014C00010FA04DD27EE667A81ED007A9DE7F4EEEE
:1014D000C67AF1EE10FA98D587EEA67A81ED017AF8
:1014E00093E7F4EEC77AF1EE10FAA7D587EEA67A65
:1014F00081ED017AA2E791ED017AB5EEC07AF1EEC5
:1015000010FAA2D5D0ED046A27EE267AF4EEC77A57
:10151000F1EE10FA02D581ED007A96E7F4EEC77A83
:10152000F1EE10FA91DD87EEA67A81ED017A8CE773
:10153000094BD3ED007AF1EE677AC3ED007AD3ED73
:10154000017AF1EE677AC3ED017A024B00221A604C
:101550007FE700BF740A0020280B0020DFED047A2B
:1015600020EE270ADFED037A80EE270A704700BFDE
:10157000DB0F494000003443DFED047A20EE270AF8
:10158000DFED037A80EE270A704700BF0000344386
:10159000DB0F494038B52DED068B0446B0EE408A8E
:1015A000F0EE608AF0EE619AB84B93ED069AB5EED4
:1015B000C09AF1EE10FA6EDCB44B93ED069ADFEDB3
:1015C000B97AB4EEE79AF1EE10FA00F1B680AF4BBB
:1015D00093ED069ADFEDB37AB4EEE79AF1EE10FAE6
:1015E00000F30081A94B93ED069ADFEDA97AB4EEE2
:1015F000E79AF1EE10FA40F25781A44B93ED069A68
:10160000B5EEC09AF1EE10FA00F1AA819F4B93ED6E
:10161000069ADFEDA07AB4EEE79AF1EE10FA00F345
:10162000FC819A4B93ED069ADFED9A7AB4EEE79A35
:10163000F1EE10FA00F14682944B93ED069ADFED3D
:10164000967AB4EEE79AF1EE10FA80F29682F5EE11
:10165000409AF1EE10FA09D0B5EE408AF1EE10FA98
:1016600016D1F5EE408AF1EE10FA11D1DFED8B7A4A
:1016700078EE277AC4ED007ADFED897A78EEA77AE2
:10168000C4ED017AC4ED039AC8EE287AC4ED047A59
:10169000BDEC068B38BDF0EE400AB0EE680A0CF0E7
:1016A00005FFFFF769FFB4EEC09AF1EE10FA83D59B
:1016B000B5EE408AF1EE10FA05D1F5EE408AF1EE72
:1016C00010FA3FF479AFDFED757A78EE277AC4ED42
:1016D000007ADFED737A78EEA77AC4ED017AC4ED73
:1016E000039A6A4D95ED060AB1EE400AFFF736FF00
:1016F000B0EE409AF0EE480AB0EE680A0CF0D6FE62
:1017000039EE000A06F03EFEB0EE409A95ED060A6C
:10171000B1EE400AFFF722FFB0EE40AAF0EE480A11
:10172000B0EE680A0CF0C2FE3AEE000A06F0E4FDE4
:10173000C9EE007AC4ED047A89E7F0EE480AB0EE0B
:10174000680A0CF0B3FEFFF717FFB4EEC09AF1EE93
:1017500010FA7FF73CAFB5EE408AF1EE10FA05D1F2
:10176000F5EE408AF1EE10FA3FF431AFDFED4B7A3F
:1017700078EE277AC4ED007ADFED497A77EEE87AE1
:10178000C4ED017AC4ED039A404D95ED060A9FED34
:1017900045AA3AEE400AFFF7E1FEB0EE409AF0EEBD
:1017A000480AB0EE680A0CF081FE39EE000A06F035
:1017B000A3FDB0EE409A95ED060A3AEE400AFFF717
:1017C000CDFEB0EE40AAF0EE480AB0EE680A0CF08A
:1017D0006DFE3AEE000A06F0D5FDC9EE007AC4EDC2
:1017E000047A34E7F0EE480AB0EE680A0CF05EFEC8
:1017F000FFF7C2FEDFED2B7A30EE270AB4EEC09A77
:10180000F1EE10FA7FF5EEAEB5EE408AF1EE10FA89
:1018100005D1F5EE408AF1EE10FA3FF4E3AEDFEDCC
:101820001F7A78EE277AC4ED007ADFED1D7A77EE25
:10183000E87AC4ED017AC4ED039A144D95ED060AD9
:10184000FFF78CFEB0EE409AF0EE480AB0EE680A60
:101850000CF02CFE39EE400A06F094FDB0EE409AF2
:1018600095ED060AFFF77AFEB0EE40AAF0EE480AC0
:10187000B0EE680A0CF01AFE3AEE400A06F03CFDA3
:10188000C9EE007AC4ED047AE1E600BF140000203E
:10189000000034430000B4C2000034C3CDCC224465
:1018A000000098420000B442F0EE480AB0EE680A28
:1018B0000CF0FCFDFFF760FE5FED067A30EE270AC4
:1018C000B4EEC09AF1EE10FA7FF797AEB5EE408A0B
:1018D000F1EE10FA05D1F5EE408AF1EE10FA3FF480
:1018E0008CAED74B01221A60DFEDD67A78EE277ADC
:1018F000C4ED007ADFEDD47A78EEA77AC4ED017AF0
:10190000C4ED039AD14D95ED060A9FEDD1AA30EEB4
:101910004A0AFFF723FEB0EE409AF0EE480AB0EE16
:10192000680A0CF0C3FD39EE400A06F0E5FCB0EEA3
:10193000409A95ED060A30EE4A0AFFF70FFEB0EE28
:1019400040AAF0EE480AB0EE680A0CF0AFFD3AEE9D
:10195000400A06F017FDC9EE007AC4ED047A76E677
:10196000F0EE680AB0EE480A0CF0A0FDFFF704FEA6
:10197000B1EE400AB4EEC09AF1EE10FA7FF746AE2F
:10198000F5EEC09AF1EE10FA7FF740AEB5EE408A60
:10199000F1EE10FA05D1F5EE408AF1EE10FA3FF4BF
:1019A00035AEDFEDA87A78EE277AC4ED007ADFED68
:1019B000A67A78EEA77AC4ED017AC4ED039AA34D16
:1019C00095ED060A9FEDA2AA30EE0A0AFFF7C6FDC2
:1019D000B0EE409AF0EE480AB0EE680A0CF066FDF0
:1019E00039EE400A06F088FCB0EE409A95ED060A02
:1019F00030EE0A0AFFF7B2FDB0EE40AAF0EE480A58
:101A0000B0EE680A0CF052FD3AEE400A06F0BAFC5D
:101A1000C9EE007AC4ED047A19E6F0EE680AB0EE79
:101A2000480A0CF043FDFFF7A7FDB1EE400AB4EE03
:101A3000C09AF1EE10FA7FF5F4ADB5EE408AF1EE02
:101A400010FA05D1F5EE408AF1EE10FA3FF4E9AD57
:101A5000DFED7C7A77EEC87AC4ED007ADFED7A7A32
:101A600078EEA77AC4ED017AC4ED039A774D95ED2F
:101A7000060AB1EE400AFFF771FDB0EE409AF0EEB3
:101A8000680AB0EE480A0CF011FD39EE400A06F083
:101A900033FCB0EE409A95ED060AB1EE400AFFF72E
:101AA0005DFDB0EE40AAF0EE680AB0EE480A0CF018
:101AB000FDFC3AEE400A06F065FCC9EE007AC4ED82
:101AC000047AC4E5F0EE680AB0EE480A0CF0EEFCC9
:101AD000FFF752FDB1EE400ADFED5D7A30EE670AA6
:101AE000B4EEC09AF1EE10FA7FF7A6ADB5EE408ADB
:101AF000F1EE10FA05D1F5EE408AF1EE10FA3FF45E
:101B00009BADDFED507A77EEC87AC4ED007ADFED59
:101B10004E7A78EEA77AC4ED017AC4ED039A4B4D64
:101B200095ED060A9FED4AAA30EE0A0AFFF716FD68
:101B3000B0EE409AF0EE680AB0EE480A0CF0B6FC3F
:101B400039EE000A06F01EFCB0EE409A95ED060A4A
:101B500030EE0A0AFFF702FDB0EE40AAF0EE680A86
:101B6000B0EE480A0CF0A2FC3AEE000A06F0C4FB04
:101B7000C9EE007AC4ED047A69E5F0EE680AB0EEC9
:101B8000480A0CF093FCFFF7F7FCB1EE400ADFEDDA
:101B9000307A30EE670AB4EEC09AF1EE10FA7FF5B3
:101BA00056ADB5EE408AF1EE10FA05D1F5EE408A59
:101BB000F1EE10FA3FF44BAD214B01221A60DFED3C
:101BC000217A78EE277AC4ED007ADFED1F7A78EE7D
:101BD000A77AC4ED017AC4ED039A1C4D95ED060A6F
:101BE000B1EE400A9FED1AAA30EE4A0AFFF7B6FCA2
:101BF000B0EE409AF0EE680AB0EE480A0CF056FCDF
:101C000039EE400A06F0BEFBB0EE409A95ED060AAA
:101C1000B1EE400A30EE4A0AFFF7A0FCB0EE40AA4F
:101C2000F0EE680AB0EE480A0CF040FC3AEE400ACA
:101C300006F062FBC9EE007AC4ED047A07E500BF46
:101C4000740A0020CDCC22440000984214000020E9
:101C50000000B4422DE9F0412DED028B0E461546F1
:101C6000344B1B68012B3CD0334C2368E360636822
:101C70002361DFF8D08098ED000A304FD7ED000ADD
:101C80009FED2F8A60EE880A20EE080A01F094F892
:101C900084ED000A98ED010AD7ED010A60EE880A8A
:101CA00020EE080A304601F087F884ED010A224C44
:101CB000A3686361234B93ED080A204BD3ED030A1D
:101CC000DFED1F7A60EEA70A20EE270A284601F012
:101CD00073F8B1EE400A84ED020ABDEC028BBDE858
:101CE000F081154C2368E36063682361DFF854805A
:101CF00098ED000A114FD7ED000A9FED118A60EEB2
:101D0000880A20EE080A01F057F8B1EE400A84ED87
:101D1000000A98ED010AD7ED010A60EE880A20EE6C
:101D2000080A304601F048F8B1EE400A84ED010A95
:101D3000BDE700BF740A0020280B0020040B002020
:101D40000000C842140000202DE9F04F2DED028B59
:101D50008BB005460E4617461C466248FFF71AFC34
:101D60003A4631462846FFF775FF012C00F08B807C
:101D70005D4C5E492046FFF7E9FA65685C4BD3F895
:101D80000080D3F80490D3F818A0D3F820B02068CE
:101D9000FEF79AFB06460F465846FEF795FBCDE93F
:101DA00008015046FEF790FBCDE906014846FEF7D4
:101DB0008BFBCDE904014046FEF786FBCDE902012D
:101DC0002846FEF781FBCDE9000132463B464948F3
:101DD00001F08EF8D4ED007A9FED477AF4EEC77AE1
:101DE000F1EE10FA16D59FED457AF4EEC77AF1EED2
:101DF00010FA0FDDD4ED017A9FED3F7AF4EEC77A49
:101E0000F1EE10FA06D59FED3D7AF4EEC77AF1EEC9
:101E100010FA3DDC354D95ED000ADFED398A9FED76
:101E2000398A394CF0EE680A20EE080A40F20121A6
:101E3000204601F0D1F995ED020AF0EE680A20EE95
:101E4000080A40F20221204601F0C6F995ED010A88
:101E5000F0EE680A20EE080A40F20321204601F065
:101E6000BBF995ED030AF0EE680A20EE080A4FF47C
:101E70000171204601F0B0F9B7EE000A0BB0BDECDD
:101E8000028BBDE8F08F18491648FFF7A5FA6FE7F7
:101E90009FED1B8A1C4CF0EE480AB0EE480A40F257
:101EA0000121204601F098F9F0EE480AB0EE480A08
:101EB00040F20221204601F08FF9F0EE480AB0EE20
:101EC000480A40F20321204601F086F9F0EE480A64
:101ED000B0EE480A4FF40171204601F07DF9B0EEF2
:101EE000480ACBE7040B0020280B0020180B002029
:101EF000140000206CE900080AD7233D0AD723BD4F
:101F0000000000000000C8427C0A002008B50F480D
:101F10000F4B03600323436000238360C3604FF4CF
:101F2000C02202614FF4A0024261037643768376B9
:101F3000C3760377437701F0EBFF18B9034800F04D
:101F4000BFF808BD00F0AAFEF8E700BF7C0A002039
:101F50000064004008B50F480F4B03600323436043
:101F600000238360C3604FF4C02202614FF4A002DB
:101F70004261037643768376C3760377437701F035
:101F8000C7FF18B9034800F09BF808BD00F086FEB3
:101F9000F8E700BFA40A00200068004010B58AB02E
:101FA00000230593069307930893099303683E4A19
:101FB000934204D03D4A934236D00AB010BD3C4A09
:101FC000136801331360012B21D000240194394B95
:101FD0001A6B42F001021A631B6B03F001030193B9
:101FE000019B4FF4C05305930223069303230893E8
:101FF0000923099305A9304802F038FE224605213D
:10200000142002F087FB142002F0BCFBD5E700236C
:102010000093284B1A6C42F000721A641B6C03F098
:1020200000730093009BD0E700230293214B1A6CAE
:1020300042F080621A641B6C03F080630293029B7F
:102040001B4A136801331360012B20D00024049431
:10205000184B1A6B42F002021A631B6B03F0020367
:102060000493049B602305930223069303230893A0
:102070000923099305A9114802F0F8FD224605211C
:10208000402002F047FB402002F07CFB95E7002354
:102090000393084B1A6C42F000721A641B6C03F035
:1020A00000730393039BD1E7006400400068004085
:1020B000780A00200038024000000240000402407C
:1020C00010B58AB004461C4B984223D01B4B984253
:1020D00023D00023069301220792009301930293D9
:1020E000039304930E23099308926946204601F056
:1020F000B5FFA8B9204602F04DF8A0B9022120464C
:1021000002F0B2F990B90121204602F0ADF980B990
:102110000AB010BD00230593DBE70E230593D8E733
:1021200000F0BCFDE6E700F0B9FDE7E700F0B6FD22
:10213000E9E700F0B3FDEBE77C0A0020A40A0020E9
:1021400008B5324B984203D0314B98422AD008BD93
:10215000304B314A002102F0E2F8304B187040B9A0
:102160002D4B1B6840F25112934209D0B3F5A97F61
:102170000FD0264B1A68536943F002035361E6E718
:102180000023072BF5DC234AD15C254AD1540133C7
:10219000F7E70023072BECDC1E4AD15C214AD1541F
:1021A0000133F7E71B4B1C4A002102F0B8F81B4B28
:1021B000187018B9184B1B68FF2B06D0144B1A68FF
:1021C000536943F002035361C1E7124B1B78F12BB3
:1021D0000BD0F22B11D0F02BF0D1022300220D49AD
:1021E0001148006805F06FFAE8E702230022094968
:1021F0000E48006805F067FAE0E70223002205496F
:102200000B48006805F05FFAD8E700BFA40A002079
:102210007C0A0020D00A0020D80A0020CC0A002026
:10222000E00D0020E80D0020680B0020640B00206A
:10223000600B002030B505468E464FF0FF304FF062
:10224000000C17E0104C84EA400006E0520801330D
:102250001F2B0DD80028F5DB40000A42F6D080F095
:10226000986080F48E3080F4DB7080F00100EDE740
:102270000CF1010CF44505D255F82C104FF000423A
:102280000023E5E730BD00BFB71DC10410B582B023
:1022900000240094264B1A6B42F480021A631A6BD6
:1022A00002F480020092009A01941A6B42F4001228
:1022B0001A631B6B03F400130193019B2246052153
:1022C0000C2002F027FA0C2002F05CFA22460521CD
:1022D0000E2002F01FFA0E2002F054FA22460521C9
:1022E000102002F017FA102002F04CFA22460521C5
:1022F000112002F00FFA112002F044FA22460521C3
:10230000392002F007FA392002F03CFA2246052172
:10231000452002F0FFF9452002F034FA224605215B
:10232000462002F0F7F9462002F02CFA02B010BD68
:102330000038024008B5012004F080FCFBE708B536
:10234000012004F07BFCFBE708B5012004F076FCDB
:10235000FBE708B50A2004F071FCFBE708B505E0CF
:10236000013B054A1370142004F068FC024B1B78F3
:10237000002BF5D1F7E700BF640A002008B5FEF78F
:1023800063FF0028FBD1FEF7A9FF0E4800F0B0FD67
:102390000D4C0021204603F0A7FE23686E225A63ED
:1023A0000A4B186805F018FC094B186805F014FC76
:1023B000322004F043FC4FF40041064802F04EFD89
:1023C000F6E700BF0CEA000810110020880B00207F
:1023D000700B00200014024008B54FF480410448FF
:1023E00002F03CFD4FF4FA7004F028FCF5E700BF62
:1023F0000014024000B5B5B0DFED2C9A9FED2C8A99
:102400009FED2C9ADFED2C8AB0EE694AF0EE483A47
:10241000B0EE493AF0EE482AB0EE482AF3EE041A3C
:10242000B2EE041AF0EE680AB3EE0A0A23A800F02E
:10243000AEFCB0EE694AF0EE483AB0EE493AF0EE42
:10244000482AB0EE482AF3EE041AB2EE041AF0EE6F
:10245000680AB3EE0A0A12A800F099FCB0EE694AC5
:10246000F0EE483AB0EE493AF0EE482AB0EE482A8B
:10247000F3EE041AB2EE041AF0EE680AB3EE0A0A9A
:1024800001A800F084FC9FED0D0A0123DFED0C1A7A
:102490009FED071AF0EE400A01AA12A923A8FFF740
:1024A00053FC0A2004F0CAFBEDE700BFAE47613DD4
:1024B000000000006F12833B000048430000FA4315
:1024C0000000B44338B59FED472AB0EE424ADFED35
:1024D000463A9FED463AF0EE422AF0EE001AB1EE8F
:1024E000081AF6EE000AB2EE000A414800F04FFC6E
:1024F0002BE0BEEE007AF4EEC77AF1EE10FAACBF34
:10250000012300233AE03B4B93ED007ADFED3A7A6A
:1025100077EEC77A394B93ED017A77EEC77A93ED70
:102520000D7A77EE277AC3ED0D7A344A1168344B71
:10253000196051685960126A9A60324B186805F048
:102540004BFB314B186805F047FD0024254601344C
:1025500000F0DAFA142004F071FB264BD3ED017A77
:10256000F5EEC07AF1EE10FAC3DDB6EE007AF4EEC5
:10257000C77AF1EE10FA94BF0123002303B10135AD
:10258000092DE4DDFA2CE2DC194B00225A621F4BC4
:1025900093ED007ADFED1E7AB4EEE77AF1EE10FAF1
:1025A000B1D8DFED1C7A77EEC77A144B93ED017A40
:1025B00077EEC77A93ED0D7A77EE277AC3ED0D7A31
:1025C0000C4AD2ED007A9FED147A77EE877A93ED7C
:1025D000007A77EEC77A93ED0C7A77EE277AC3ED1F
:1025E0000C7AA2E7000000009A99193E3333333F7A
:1025F000F80D0020F00D00200000E1431400002041
:1026000008000020880B0020740B0020E80D00203B
:102610000000DC420000104400A0414408B54E4BCD
:1026200064221A727F225A720FE04C490B885B4277
:102630000B804B4B1E221A7002230022494800686F
:1026400004F07DFF462004F0F9FA474800F050FC02
:102650004148FEF723FE00287BD1444800F048FCA7
:102660003D4D2B78803B1BB23C4C23806A78803AEE
:102670006280A97880390FFA81FCA4F804C0EA7856
:10268000803A12B2E2802979217269796172A9795E
:10269000A172E979E172287A64382073697A7F3906
:1026A00089B2E18101F5A471314801808CEAEC71B5
:1026B000A1EBEC7189B2092901D80020A080002A81
:1026C000B8BF524292B2092A02D8244A0021D180CE
:1026D000002BB8BF5B429BB2092B02D81F4B0022D4
:1026E0001A801E4BB3F90430642B02DD1B4B6422AD
:1026F0009A801A4BB3F90630642B02DD174B642223
:10270000DA80164BB3F90030642B02DD134B6422E0
:102710001A80124BB3F9043013F1640F03DA0F4B34
:102720004FF69C729A800D4BB3F9063013F1640F8B
:1027300003DA0A4B4FF69C72DA80084BB3F900308B
:1027400013F1640FBFF671AF044B4FF69C721A8001
:102750006BE7FEF7C3FD75E77C0B0020500B0020F4
:10276000640A0020480B00201CEA000820EA000848
:10277000660A0020034B0360034B0B608023136049
:10278000704700BF8C0D00208C0B00202DE9F04F0E
:10279000DBB07C4C56AD94E80F0085E80F000021BB
:1027A000284604F052FA784B186052AD94E80F00B6
:1027B00085E80F000021284604F047FA734B1860A3
:1027C0004EAD94E80F0085E80F000021284604F084
:1027D0003CFA6F4B18604AAD94E80F0085E80F0093
:1027E0000021284604F031FA6A4B186046AD04F126
:1027F00010030FCB85E80F000021284604F025FACE
:10280000654B18603FAD04F120060FCE0FC596E86A
:10281000070085E8070000213FA804F0DAF95F4BC4
:10282000186038AD04F13C060FCE0FC596E80700DE
:1028300085E80700002138A804F0CBF9584E306035
:1028400031AD04F158070FCF0FC597E8070085E8B1
:102850000700002131A804F0BCF9524B18602AADE2
:1028600004F174070FCF0FC597E8070085E807004C
:1028700000212AA804F0ADF94B4F386023AD04F1D4
:10288000900CBCE80F000FC59CE8070085E8070026
:10289000002123A804F09DF9DFF818B1CBF800005F
:1028A0001CAD04F1AC0CBCE80F000FC59CE80700A0
:1028B00085E8070000211CA804F08BF9DFF8F8A0D8
:1028C000CAF8000015AD04F1C80CBCE80F000FC534
:1028D0009CE8070085E80700002115A804F079F9B5
:1028E000DFF8D890C9F800000EAD04F1E40CBCE8A4
:1028F0000F000FC59CE8070085E8070000210EA81F
:1029000004F067F9DFF8B880C8F8000007AD04F5F7
:10291000807CBCE80F000FC59CE8070085E8070035
:10292000002107A804F055F9204D2860EC4604F575
:102930008E740FCCACE80F0094E807008CE8070019
:102940000021684604F045F9194B1860DBF80000D7
:1029500005F042FBDAF8000005F03EFBD9F8000074
:1029600005F03AFBD8F8000005F036FB386805F0B2
:1029700033FB306805F030FB286805F02DFB5BB0B9
:10298000BDE8F08F28E80008680B0020640B0020E9
:10299000600B0020F40A0020480B0020000B0020F0
:1029A0006C0B0020440B0020FC0A0020740B00205C
:1029B0004C0B0020F80A0020780B0020880B002028
:1029C000700B00202DE9F04F8DB00024079408947F
:1029D00009940A940B940194454B1A6B42F08002BF
:1029E0001A631A6B02F080020192019A02941A6B28
:1029F00042F001021A631A6B02F001020292029A7B
:102A000003941A6B42F004021A631A6B02F0040278
:102A10000392039A04941A6B42F002021A631A6B2F
:102A200002F002020492049A05941A6B42F020020A
:102A30001A631A6B02F020020592059A06941A6B2B
:102A400042F040021A631B6B03F040030693069B9F
:102A5000DFF8A8B022461021584602F0F9F9DFF855
:102A6000A09001221146484602F0F2F9DFF8948066
:102A700022464FF44041404602F0EAF91D4F2246FB
:102A80000321384602F0E4F94FF0100ACDF81CA0FB
:102A900001250895099403260A9607A9584602F0CD
:102AA000E5F8CDF81CA04FF404130893099507A985
:102AB000114802F0DBF80795089509940A9607A9D2
:102AC000484602F0D3F84FF4404307930895099421
:102AD0000A9407A9404602F0C9F807960895099498
:102AE0000A9407A9384602F0C1F80DB0BDE8F08F8E
:102AF0000038024000180240000802400000024076
:102B0000000402400014024038B52DED028B174B33
:102B1000D3ED007A164CC4ED007A93ED017A77EE8E
:102B2000C77AC4ED017A17EE900AFDF7CDFC024694
:102B30000B46104800F0DCF99FED0F8A0F4DF0EEC8
:102B4000480A94ED010A284600F036F90C4BD3ED03
:102B5000061A95ED0B1AF0EE480AB0EE480A09483D
:102B600000F07CFBBDEC028B38BD00BFE00D002007
:102B7000F00D002024EA000800000000F80D0020FD
:102B8000140000204C0000200378502B00D0704728
:102B90004378472BFBD184B04B6A8B62D1ED005A4E
:102BA000C1ED025A91ED015A81ED035AD1ED066A49
:102BB000C1ED096A002308E0C21892F802C003F1CF
:102BC00010026A4402F80CCC01330B2BF4DD9FEDAC
:102BD000286A9DED017A27EE067AD1ED0C7A37EE60
:102BE000277A81ED007ADDED027A67EE867A91ED43
:102BF0000D6A77EE867AC1ED017A9DED036A81ED6B
:102C0000066A37EE657ADFED1B5A27EE257A81EDED
:102C1000047A77EEC57A67EEA57AC1ED057A76EE8D
:102C2000667A67EEA55AC1ED075A9FED137AF4EE66
:102C3000C77AF1EE10FA10D5CB6A0133CB62D1ED31
:102C40000B7AF8EEE77A9FED0D7A67EE877A36EE2B
:102C5000276A81ED086A04B070479FED097AF4EEA7
:102C6000C77AF1EE10FAEADDCB6A013BCB62E6E708
:102C700065B3803F0000FA43000034C30000B44352
:102C80000000344308B50268034B9A4200D008BDE7
:102C900001F018F9FBE700BF0014004072B6FEE730
:102CA00000B595B03022002108A805F0DFFB002315
:102CB000039304930593069307930193204A116CA1
:102CC00041F080511164126C02F080520192019A1D
:102CD00002931C4B1A6842F480421A601B6803F48A
:102CE00080430293029B012308934FF4803309939E
:102CF00002220E924FF480030F9304231093A82115
:102D000011911292139308A802F0B2F898B90F2308
:102D1000039302230493002305934FF4A0530693D7
:102D20004FF480530793052103A802F007FB20B955
:102D300015B05DF804FBFFF7B1FFFFF7AFFF00BF71
:102D4000003802400070004008B501F0A1F8FFF71C
:102D5000A7FFFFF737FEFFF799FAFFF7D7F8FFF75E
:102D6000F9F800F0E1F800F02BFE00F091FE00F021
:102D700041FE00F065FE00F0C9FD00F071FDC820C5
:102D800001F0B2F8FFF702FD03F01EFFFEE780ED51
:102D90000D0AC0ED070A80ED0E1AC0ED002AC0ED45
:102DA0000F1A80ED102A80ED013AC0ED023A80ED55
:102DB000034A0023C362704780ED040AC0ED000A95
:102DC000D0ED057AC0ED067AC36A036370EEC00ADF
:102DD000C0ED050AF5EEC00AF1EE10FA2FDDB0EEF7
:102DE000607AD0ED076AF4EEC76AF1EE10FA79D591
:102DF000C0ED080A70EEE77AC0ED0A7AD0ED0F6AEE
:102E0000F4EEC76AF1EE10FA04DCF5EE406AF1EE7A
:102E100010FA21D190ED097A30EE877A80ED097AA7
:102E2000D0ED0E6AF5EE406AF1EE10FA16D0B4EE6F
:102E3000E67AF1EE10FA05DDC0ED096A0EE0B1EEBA
:102E4000607ACEE7F1EE666AB4EEE67AF1EE10FA59
:102E500004D5C0ED096A01E00023436290ED107AC9
:102E6000B5EE407AF1EE10FA06D0F4EEC77AF1EE44
:102E700010FA23DD80ED0A7A90ED010A60EE800AF7
:102E8000D0ED027A90ED097A67EE877A70EEA70AA4
:102E9000D0ED037A90ED0A7A67EE877A70EEA70A92
:102EA000C0ED0B0AD0ED0D7AF4EEE70AF1EE10FA60
:102EB0000EDDC0ED0B7A90ED0B0A7047B1EE477A4C
:102EC000F4EEC77AF1EE10FAD6D580ED0A7AD3E7A0
:102ED000F1EE677AF4EEE70AF1EE10FAEBD5C0ED09
:102EE0000B7AE8E79FED010A704700BF0000000081
:102EF0000FB410B582B004AB53F8042B0193084C07
:102F00004FF40071204605F003FB82B221460548CC
:102F100003F0DAFA02B0BDE8104004B0704700BF19
:102F20003C0E00209014002008B50E480E4B0360A4
:102F30004FF48273436000238360C3600361436185
:102F40004FF4007282611022C261036243628362A5
:102F50000A23C36202F084FB00B908BDFFF79EFE9E
:102F6000FBE700BF3C1000200030014000B589B0F5
:102F70000023039304930593069307930268154B6C
:102F80009A4202D009B05DF804FB0021019103F5DB
:102F900084335A6C42F480525A645A6C02F4805260
:102FA0000192019A02911A6B42F001021A631B6BA3
:102FB00003F001030293029BE02303930223049393
:102FC000032306930523079303A9034801F04EFE4C
:102FD000D8E700BF003001400000024008B5D0ED46
:102FE000007A9FED107AF4EEC77AF1EE10FA07DC62
:102FF0009FED0D7AF4EEC77AF1EE10FA09D908BD0B
:103000009FED0A7A77EEC77AC0ED007AFFF7E6FF08
:10301000F5E79FED067A77EE877AC0ED007AFFF745
:10302000DDFFECE700003443000034C30000B4438C
:1030300010B582B00446D0ED037A90ED047A77EEB5
:10304000C77ACDED017A01A8FFF7C8FFDDED017A5F
:10305000F5EEC07AF1EE10FA11DD9FED267AF4EE6E
:10306000C77AF1EE10FA94BF012300238BB194EDDF
:10307000047A77EE877AC4ED037A02B010BD9FED33
:103080001E7AF4EEC77AF1EE10FAACBF01230023EA
:10309000ECE79FED197AF4EEC77AF1EE10FA10D54D
:1030A00094ED047A77EE877A9FED147A77EE877A3B
:1030B000C4ED037AD4ED027AF1EE677AC4ED027AB8
:1030C000DBE79FED0C7AF4EEC77AF1EE10FAD4DD6F
:1030D00094ED047A77EE877A9FED087A77EEC77AD7
:1030E000C4ED037AD4ED027AF1EE677AC4ED027A88
:1030F000C3E700BF0000B4420000B4C20000344384
:10310000DFED047A80EE277A9FED030A27EE000AAE
:10311000704700BF00003443DB0F4940DFED047A05
:1031200080EE277A9FED030A27EE000A704700BF62
:10313000DB0F49400000344310B52DED068B0446EB
:10314000B0EE40AAF0EE609AB0EE619AB0EE410A9D
:10315000FFF7D6FF9FED1F8A20EE088A94ED010A43
:1031600030EE090AFFF7CCFF05F00CF960EE088A93
:1031700078EE8A8A94ED010A30EE090AFFF7C0FF63
:1031800005F0BAF820EE080A70EE299A28EEA80A8F
:1031900069EEA97A30EE270AB5EEC00AF1EE10FA10
:1031A00014DB0BF085F984ED020AE3682361F0EE8D
:1031B000680AB0EE690A0BF079F9FFF7AFFF30EE5D
:1031C000499A84ED039ABDEC068B10BD0023A360E1
:1031D000EBE700BFA8C6834110B5044610EE102AE5
:1031E00010EE903A1948016000218160C160082109
:1031F0000161174880ED000A16490A70C2F3072CD6
:1032000081F801C0C2F3074C81F802C0C2F3076223
:10321000CA70C0ED000A0B71C3F307224A71C3F3F1
:1032200007428A71C3F30763CB71204601F05EF851
:103230000028FAD0084B074A0449204600F0D8FF7E
:1032400000B910BDFFF72AFDFBE700BF9C1000206E
:10325000B810002094100020B410002038B52DEDD7
:10326000048B0446B0EE408AF0EE608AB0EE419ADC
:10327000F0EE619AB5EEC00AF1EE10FA3ADDF0EE2A
:10328000407AF5EEC08AF1EE10FA36DDB0EE687ADB
:1032900077EE877AB5EEC09AF1EE10FA30DDB0EE37
:1032A000497A77EE877A9FED2F7AF4EEC77AF1EEBE
:1032B00010FA28DC0023A360E36123632A4DD4EDD8
:1032C000030A94ED020A21682846FFF785FFD4ED32
:1032D000080A94ED070A61692846FFF77DFFD4EDDF
:1032E0000D0A94ED0C0AA16A2846FFF775FFBDECA4
:1032F000048B38BDF1EE407AC3E7B1EE687AC7E7D8
:10330000B1EE497ACDE7F0EE691AB0EE491AF0EE67
:10331000680AB0EE480A2046FFF70EFF2046FFF786
:1033200087FE04F11405F0EE691AB0EE491AF0EECA
:10333000680AB0EE480A2846FFF7FEFE2846FFF767
:1033400077FE04F12805F0EE691AB0EE491AF0EEA6
:10335000680AB0EE480A2846FFF7EEFE2846FFF757
:1033600067FEABE7ACC52737A40A002000B583B0E1
:10337000002200920D4B596C41F480415964596C04
:1033800001F48041009100990192196C41F0805143
:1033900019641B6C03F080530193019B0F216FF0A4
:1033A000010001F0B7F903B05DF804FB00380240FA
:1033B00030B589B0044600230193214B1A6C42F0CA
:1033C00020021A641B6C03F020030193019B02A9E5
:1033D00003A802F089F8069BCBB902F065F8034612
:1033E0001848A0FB03239B0C013B1748174A0260B7
:1033F00040F2E732C260436000230361836083616F
:1034000002F0D8FC054630B1284609B030BD02F0C4
:103410004BF84300E4E70C4802F062FB0546002845
:10342000F2D1372001F0AEF90F2C01D90125EBE7DD
:1034300000222146372001F06DF9054B1C60E3E7BF
:103440000038024083DE1B43BC1000200014004003
:1034500090000020FEE7FEE7FEE7FEE7FEE770478C
:1034600008B5024801F014FB08BD00BF101300208E
:1034700008B5024801F00CFB08BD00BF7013002026
:1034800008B5024801F004FB08BD00BF501200203F
:1034900008B5024801F0FCFA08BD00BFB0120020D8
:1034A00008B5024800F0FEFF08BD00BF7C0A0020FE
:1034B00008B5024803F07AF908BD00BF9014002057
:1034C00030B583B0194B1B681A6812F0100F04D185
:1034D000164803F06BF903B030BD002201921A6860
:1034E00001925B680193019B104C204603F03AF86F
:1034F0000F494B788A7842EA0322CB7891F804E0AE
:103500004EEA032E0B78013B0A480088121A0A483B
:1035100003EB43054FEA450C8444ACF80220ACF8B9
:1035200004E00522204603F02DFBD1E7D41400204F
:10353000C4150020660A0020B015002030B583B005
:10354000104B1B681A6812F0100F04D10D4803F0DD
:103550002DF903B030BD002201921A6801925B6818
:103560000193019B074C204602F0FCFF064D0749E2
:103570002846FFF709FB0F222946204603F002FBED
:10358000E4E700BF18150020A0150020140000205B
:1035900008B5024802F0EDFA08BD00BFBC100020DB
:1035A00008B5024801F074FA08BD00BFD01300202E
:1035B00008B5024800F076FF08BD00BFA40A00204D
:1035C00008B5024801F064FA08BD00BF30140020BD
:1035D00008B5024801F05CFA08BD00BFF0110020F8
:1035E00010B582B02E4B1B681A6812F0100F04D170
:1035F0002B4803F0DBF802B010BD002201921A68DC
:1036000001925B680193019B254802F0ABFF254CBA
:1036100012212046FEF70EFE234B186094F84A2034
:1036200094F84B301B02904208BF43F0010394F81A
:103630004C2043EA024394F84D2053EA026315D02C
:10364000A2781A490A70237919490B70A3B9A37F8C
:10365000E07F43EA002394F8200043EA004394F813
:10366000211043EA0163134941F822304E220D49EB
:103670000B4803F087FABBE70A2BF7D109498B7F88
:10368000C87F43EA002391F8200043EA004391F801
:10369000211043EA0163074941F82230E6E700BF01
:1036A0005C150020A011002008110020041100204A
:1036B00005110020680A00200120704708B504F0B9
:1036C000ABFE162303604FF0FF3008BD08B54FF086
:1036D000FF31FFF7F3FFFEE770B50C4616460025F5
:1036E00006E0AFF30080214601F8010B01350C46DE
:1036F000B542F6DB304670BD70B50C461646002567
:1037000004E014F8010BAFF300800135B542F8DB9B
:10371000304670BD4FF0FF3070474FF400534B60A0
:1037200000207047012070470020704710B5034605
:103730000C4A0D490D48006840B10C48006803442C
:10374000521A934206D8094A136010BD0748084C24
:103750000460F2E704F060FE0C2303604FF0FF30DA
:10376000F3E700BF00000220000400000C1100205D
:1037700070170120034AD2F8883043F47003C2F86E
:103780008830704700ED00E082B00368B3F1804FED
:1037900004D00F4A93420ED002B07047002300932A
:1037A0000C4B1A6C42F001021A641B6C03F001030B
:1037B0000093009BF0E700230193064B1A6C42F044
:1037C00008021A641B6C03F008030193019BE3E7F2
:1037D000000C00400038024000B589B0002303937C
:1037E00004930593069307930368B3F1804F05D0C4
:1037F000184A934218D009B05DF804FB00230193E6
:10380000154B1A6B42F001021A631B6B03F00103A4
:103810000193019B0123039302220492079303A9BE
:103820000E4801F023FAE6E7002302930A4B1A6BD5
:1038300042F001021A631B6B03F001030293029B27
:103840000223039304930693079303A9034801F00B
:103850000DFAD0E7000C00400038024000000240A2
:1038600000B58FB000230A930B930C930D9308932C
:10387000099301930293039304930593069307938B
:1038800021484FF08042026040F24732426083603C
:103890004FF4FA62C2600361836102F08BFA20BBCD
:1038A0004FF480530A930AA9174802F08EFBF8B927
:1038B000154802F0ABFAF0B900230893099308A960
:1038C000114802F093FCC8B96023019300220292D0
:1038D0000392059201A90C4802F0FCFA88B90A4843
:1038E000FFF77AFF0FB05DF804FBFFF7D7F9D7E7D2
:1038F000FFF7D4F9DCE7FFF7D1F9DDE7FFF7CEF901
:10390000E2E7FFF7CBF9EAE71011002000B58FB02E
:1039100000230A930B930C930D930893099301933F
:103920000293039304930593069307932248234A33
:10393000026040F24732426083604FF4FA62C26034
:1039400003618023836102F035FA30BB4FF480536A
:103950000A930AA9184802F038FB08BB164802F07F
:1039600055FA00BB00230893099308A9124802F0F6
:103970003DFCD8B9602301930023029303930422F2
:1039800005920DEB02010C4802F0A4FA88B90A482E
:10399000FFF722FF0FB05DF804FBFFF77FF9D5E7D3
:1039A000FFF77CF9DAE7FFF779F9DBE7FFF776F95C
:1039B000E0E7FFF773F9EAE758110020000C004038
:1039C00008B50A480A4B03604FF4E1334360002313
:1039D0008360C36003610C2242618361C36102F0B2
:1039E00043FD00B908BDFFF759F9FBE7901400202B
:1039F0000010014008B50F480F4B03604FF4E1334E
:103A0000436000238360C36003610C2242618361D1
:103A1000C36102F029FD50B906480268D36843F03B
:103A20001003D3600522054903F0ACF808BDFFF789
:103A300035F9F1E7D414002000440040C4150020FB
:103A400008B50F480F4B03600F4B436000238360A2
:103A5000C36003610C2242618361C36102F004FD13
:103A600050B907480268D36843F01003D3600F22AF
:103A7000064903F087F808BDFFF710F9F1E700BF2A
:103A8000181500200048004000941100A0150020E7
:103A900008B50F480F4B03600F4B43600023836052
:103AA000C36003610C2242618361C36102F0DCFCEC
:103AB00050B907480268D36843F01003D3604E2220
:103AC000064903F05FF808BDFFF7E8F8F1E700BF2B
:103AD0005C15002000140140003E4900A0110020A8
:103AE00030B58FB00446002309930A930B930C93CF
:103AF0000D9303688A4A93420CD08A4A93424FD06E
:103B0000894A934200F0AB80884A934200F02A81B0
:103B10000FB030BD00250195854B5A6C42F0100264
:103B20005A645A6C02F010020192019A02951A6BC3
:103B300042F001021A631B6B03F001030293029B24
:103B40004FF4C063099302230A9303230C930723C2
:103B50000D9309A9774801F089F87748774B0360FE
:103B60004FF00063436040238360C5604FF480637F
:103B7000036145618561C5610562456200F090FEA3
:103B800058B96D4B63639C6300220521252000F02A
:103B9000C1FD252000F0F6FDBAE7FFF77FF8F0E75A
:103BA00000250395624B1A6C42F400321A641A6CB9
:103BB00002F400320392039A04951A6B42F0010258
:103BC0001A631B6B03F001030493049B0C230993FA
:103BD00002230A9303230C9307230D9309A9554845
:103BE00001F044F85648574B03604FF000634360C0
:103BF0008560C5604FF48063036145618561C5617F
:103C00000562456200F04CFE18BB4D4BA3639C63FC
:103C10004D484E4B03604FF0006343604023836088
:103C20000023C3604FF48062026143618361C3611A
:103C30000362436200F034FE70B9434B63639C63DC
:103C400000220521262000F065FD262000F09AFDC7
:103C50005EE7FFF723F8D8E7FFF720F8EDE7002548
:103C60000595334B1A6C42F480221A641A6C02F4E4
:103C700080220592059A06951A6B42F002021A6399
:103C80001B6B03F002030693069B4FF440630993FA
:103C900002230A9303230C9307230D9309A92C48AD
:103CA00000F0E4FF2B482C4B03604FF000634360AF
:103CB0008560C5604FF48063036145618561C561BE
:103CC0000562456200F0ECFD18BB224BA3639C63C8
:103CD0002248234B03604FF000634360402383601E
:103CE0000023C3604FF48062026143618361C3615A
:103CF0000362436200F0D4FD70B9184B63639C63A8
:103D000000220521272000F005FD272000F03AFDC4
:103D1000FEE6FEF7C3FFD8E7FEF7C0FFEDE700BF02
:103D200000100140004400400048004000140140E1
:103D30000038024000000240F0110020B864024048
:103D40005012002088600240B0120020A0600240A3
:103D5000000402401013002028600240701300206D
:103D600058600240002507952E4B5A6C42F0200205
:103D70005A645A6C02F020020792079A08951A6B4F
:103D800042F004021A631B6B03F004030893089BC0
:103D9000C023099302230A9303230C9308230D9352
:103DA00009A9214800F062FF2048214B03604FF031
:103DB000206343608560C5604FF4806303614561A3
:103DC0008561C5610562456200F06AFD18BB174B4D
:103DD000A3639C631748184B03604FF02063436054
:103DE000402383600023C3604FF48062026143611B
:103DF0008361C3610362436200F052FD70B90D4BF1
:103E000063639C6300220521472000F083FC472068
:103E100000F0B8FC7CE6FEF741FFD8E7FEF73EFF76
:103E2000EDE700BF0038024000080240D013002038
:103E30002864024030140020A0640240DFF834D02F
:103E40000D480E490E4A002302E0D458C4500433F2
:103E5000C4188C42F9D30B4A0B4C002301E01360C9
:103E60000432A242FBD3FFF785FC04F0DBFAFEF735
:103E70006BFF70470000022000000020480A00206D
:103E80009CF60008480A00206C170120FEE700009D
:103E900008B50B4B1A6842F400721A601A6842F4B3
:103EA00080621A601A6842F480721A60032000F07F
:103EB0001FFC0F20FFF77CFAFFF758FA002008BD1F
:103EC000003C0240034A1168034B1B780B4413600B
:103ED000704700BFCC1500208C000020014B1868F3
:103EE000704700BFCC15002038B50446FFF7F6FF39
:103EF0000546B4F1FF3F02D0044B1B781C44FFF78A
:103F0000EDFF401BA042FAD338BD00BF8C0000205B
:103F1000002800F0A18038B5044690F82030D3B1D5
:103F20002268136843F001031360FFF7D7FF0546CB
:103F300023685A6812F0010F10D1FFF7CFFF401B22
:103F40000A28F5D9636A43F400336362052384F8D1
:103F50002030012038BDFEF721F8E1E71A6822F091
:103F600002021A60FFF7BAFF054623685A6812F08A
:103F7000020F0DD0FFF7B2FF401B0A28F5D9636A84
:103F800043F400336362052384F820300120E1E725
:103F9000227E012A3DD01A6822F080021A60637ED8
:103FA000012B3BD02268136823F040031360A37EEB
:103FB000012B39D02268136823F020031360E37EBD
:103FC000012B37D02268136843F010031360237F5E
:103FD000012B35D02268136823F008031360637F38
:103FE000012B33D02268136823F004031360A36805
:103FF000E268134322691343626913436268013A1A
:1040000021681343CB6100206062012384F82030D3
:10401000A0E71A6842F080021A60C0E722681368BD
:1040200043F040031360C2E72268136843F02003A3
:104030001360C4E72268136823F010031360C6E717
:104040002268136843F008031360C8E72268136806
:1040500043F004031360CAE70120704790F8203052
:10406000013BDBB2012B05D9436A43F48023436251
:104070000120704730B5464BD3F8002242F00102D0
:10408000C3F80022D3F8002222F47C52C3F80022A5
:10409000D3F80022486A42EA0022C3F800224A69A3
:1040A00002F01F02012000FA02F2D3F81C026FEAAC
:1040B000020C20EA0200C3F81C02CB69C3B9344BDE
:1040C000D3F80C020CEA0000C3F80C028C88486993
:1040D000CD6844EA0544483043F830408C6808888D
:1040E00040EA04404C6904F1480E03EBCE035860EB
:1040F000CB69012B1ED08B69002B33D12448D0F81B
:1041000004320CEA0303C0F804320B698BBB20486D
:10411000D0F814320CEA0303C0F814320B6A012BF6
:104120002ED01B4AD2F8003223F00103C2F800322D
:10413000002030BD164BD3F80C021043C3F80C021C
:104140008C8848690D6844EA0544483043F830409B
:1041500088894C698D6840EA0540483403EBC40304
:104160005860C8E70A48D0F804321343C0F8043254
:10417000CBE70748D0F814321343C0F81432CDE728
:104180000349D1F81C321A43C1F81C22C9E700BF09
:104190000064004070B5044690F82050EDB2012D47
:1041A00006D0436A43F4002343620125284670BDCC
:1041B000022380F820300268136823F001031360A3
:1041C000FFF78CFE064623685B6813F0010F0CD0E6
:1041D000FFF784FE831B0A2BF5D9636A43F400338F
:1041E0006362052384F82030E0E700256562DDE79F
:1041F00030B590F820C00468A4680CF1FF3C5FFA69
:104200008CFCBCF1010F6BD814F0E05F62D0C4F3FA
:10421000016CBCF1020F05D9436A43F40003436209
:10422000012062E0012404FA0CF41C608B68002B6E
:104230003DD10D68CB68046843EA45550CF118037D
:104240001B01E55003680C690CF1180E03EB0E130B
:104250005C600B7D012B35D0D17993791B0443EA47
:104260000163517943EA012314790168234301EB87
:104270000C11C1F88C31D17893781B0443EA0163A7
:10428000517843EA0123117802680B4302EB0C12C8
:10429000C2F8883102680CF1180C4FEA0C1C52F875
:1042A0000C3043F0010342F80C3000201DE04C6854
:1042B00043EAC403CC6823430CF1180424010568C5
:1042C0002B51BFE7036803EB0E13596841F480716B
:1042D0005960C1E7436A43F400134362012004E0DC
:1042E000436A43F480234362012030BD90F82030BC
:1042F000013BDBB2012B01D90020704703689868AD
:1043000010F0806000D001209A6812F0006F00D099
:1043100001309B6813F0805FEFD00130704790F858
:1043200020C00CF1FF3C5FFA8CFCBCF1010F00F2E5
:10433000958030B451B90468E46814F0030F10D1CB
:10434000436A43F400134362012077E00468246960
:1043500014F0030F05D1436A43F4001343620120B4
:104360006CE001F11B04240105682C5904F00404DD
:104370009460002C64D101F11B04240105682C59C0
:10438000640D1460046801F11B0C4FEA0C1C54F816
:104390000C4004F00204D46004686444646804F0CF
:1043A0000F041461046864446468C4F307249461CE
:1043B000046864446468240C5461026802EB0112CE
:1043C000D2F8B8211A70026802EB0112D2F8B821B3
:1043D000C2F307225A70026802EB0112D2F8B82128
:1043E000C2F307429A70026802EB0112D2F8B821B8
:1043F000120EDA70026802EB0112D2F8BC211A71B7
:10440000026802EB0112D2F8BC21C2F307225A71F2
:10441000026802EB0112D2F8BC21C2F307429A7182
:10442000026802EB0112D2F8BC21120EDA7179B9DE
:104430000268D36843F02003D360002030BC70478B
:1044400001F11B04240105682C59E408546099E724
:104450000268136943F020031361EEE7436A43F4F3
:10446000802343620120704790F82030013BDBB28B
:10447000012B05D9436A43F480234362012070472E
:1044800002685369194351610020704770477047B3
:104490007047704770477047704770477047704764
:1044A000704770472DE9F84F054603685C69D3F8FB
:1044B00004809F68D3F80CB0D3F810A0D3F81890FC
:1044C00014F001063BD017F0010616D001229A60C5
:1044D00017F0020F08D117F0040F0CD117F00806DF
:1044E00006D04FF4805608E0FFF7D0FF002604E026
:1044F000FFF7CFFF01E04FF4006617F4807F0DD087
:104500002B684FF480729A6017F4007F40F0868029
:1045100017F4806F00F0868046F4005617F4803F51
:104520000DD02B684FF480329A6017F4003F40F0B2
:10453000838017F4802F00F0838046F4004614F047
:10454000080F07D01BF0100F04D046F400762B683C
:104550001022DA6014F0040F02D01BF0080F79D19A
:1045600014F0020F04D02B68DB6813F0030F78D12E
:1045700014F0400F07D01AF0100F04D046F48066F4
:104580002B6810221A6114F0200F02D01AF0080FC5
:104590006BD114F0100F04D02B681B6913F0030FBC
:1045A0006AD114F4003F02D018F0100F68D114F44F
:1045B000803F02D018F0080F69D114F4004F7AD070
:1045C00018F0040F74D014F4807F04D019F0010F98
:1045D00001D046F0010614F4007F04D019F0020F58
:1045E00001D046F0020614F4806F04D019F0040FD5
:1045F00001D046F0040614F4006F59D019F0700988
:1046000056D0B9F1400F65D058D8B9F1200F5ED01F
:10461000B9F1300F42D146F0200644E02846FFF7BA
:1046200036FF7BE717F4006F02D046F4804675E74B
:104630002846FFF72FFF71E72846FFF729FF7EE79F
:1046400017F4002F02D046F4803678E72846FFF7AB
:1046500022FF74E72B680822DA602846FFF71CFF68
:104660007EE72846FDF76CFD82E72B6808221A6179
:104670002846FFF713FF8CE72846FFF70EFF90E769
:104680002B6810225A602846FFF709FF8FE72B6836
:1046900008225A602846FFF703FF8EE7B9F1100F92
:1046A00001D146F008062A68936923F070039361EC
:1046B0002B6804225A609EB9BDE8F88FB9F1500FFB
:1046C0000BD0B9F1600FEED146F48076EBE746F0FF
:1046D0001006E8E746F04006E5E746F08006E2E728
:1046E0006B6A1E436E622846FFF7DBFEE4E70000BC
:1046F000074AD36823F4E0631B041B0C000200F498
:10470000E060034343F0BF6343F40033D36070477A
:1047100000ED00E000B5194BDB68C3F30223C3F1E1
:10472000070CBCF1040F28BF4FF0040C03F1040E7A
:10473000BEF1060F18D9033B4FF0FF3E0EFA0CFCFA
:1047400021EA0C0199400EFA03F322EA030319430C
:1047500000280BDB0901C9B200F1604000F561409F
:1047600080F800135DF804FB0023E5E700F00F007C
:104770000901C9B2024B1954F4E700BF00ED00E093
:1047800014ED00E0002807DB00F01F0240090123C0
:104790009340024A42F82030704700BF00E100E039
:1047A00030B405682C6824F480242C6004686360AD
:1047B0008368402B05D0036899600368DA6030BCD9
:1047C000704703689A600368D960F8E710B403681B
:1047D000D9B210390C4AA2FB014212090B4CA25C5F
:1047E000C2655F2909D923F47F7323F003030433DF
:1047F0008365806D5DF8044B704723F47F7323F06D
:1048000003038365F5E700BFABAAAAAA40EA000844
:10481000836A826992B9012B0AD0022B02D00BB1B4
:1048200000207047C36A13F0807F28D100207047B2
:10483000C36AB3F1C07F24D000207047B2F5005F97
:1048400009D0022B25D9032B25D1C36A13F0807F11
:1048500023D100207047032B03D8DFE803F01404B2
:10486000140A00207047C36A13F0807F0DD1002026
:104870007047C36AB3F1C07F09D0002070470120A0
:1048800070470120704701207047012070470120C8
:1048900070470120704700207047012070470000DA
:1048A00070B50446FFF71AFB002C5BD005460223C7
:1048B00084F83530002384F834302268136823F0FC
:1048C0000103136023681A6812F0010F0AD0FFF782
:1048D00005FB431B052BF5D920236365032084F8D2
:1048E000350070BD1A68204810406168A2680A430C
:1048F000E1680A4321690A4361690A43A1690A43DD
:10490000E1690A43216A0A430243616A04291ED00D
:104910001A602668756925F00705636A1D43042B34
:1049200007D1A36A1D43E36A1BB12046FFF770FF5E
:1049300090B975612046FFF749FFE26D3F23934030
:10494000836000206065012384F83530C9E7E16A9F
:10495000206B01430A43DBE740236365012084F8B1
:104960003500BEE70120BCE73F8010F038B50446B3
:10497000856D90F8340001282BD0012084F8340094
:1049800094F83500C0B2012804D0002384F83430F4
:10499000022038BD022084F83500002060652046E2
:1049A000FFF7FEFEE26D3F239340AB602268136881
:1049B00043F016031360236C23B12268136843F09D
:1049C000080313602268136843F00103136000209A
:1049D000DFE70220DDE770B50446866DFFF77EFA5B
:1049E00094F83530DBB2022B06D0802363650023B8
:1049F00084F83430012070BD05462268136823F026
:104A0000160313602268536923F080035361236CFB
:104A1000E3B12268136823F0080313602268136867
:104A200023F00103136023681B6813F0010F11D0FA
:104A3000FFF754FA431B052BF5D9202363650320A8
:104A400084F83500002384F83430D4E7A36C002BBD
:104A5000DFD1E3E7E26D3F239340B360012384F8A5
:104A60003530002084F83400C5E790F83530DBB2EB
:104A7000022B03D08023436501207047052380F873
:104A800035300268136823F001031360002070477B
:104A9000F0B583B0044600230193724B1D68724B3E
:104AA000A3FB0535AD0A876D3E68C26D08239340B0
:104AB000334210D003681A6812F0040F0BD01A6842
:104AC00022F004021A60C26D08239340BB60436D5C
:104AD00043F001034365E26D01239340334209D063
:104AE0002268526912F0800F04D0BB60636D43F0FE
:104AF00002036365E26D04239340334209D02268C8
:104B0000126812F0020F04D0BB60636D43F004031F
:104B10006365E26D10239340334224D0226812680B
:104B200012F0080F1FD0BB6023681A6812F4802FA0
:104B30000DD01B6813F4002F04D1236C9BB12046C9
:104B4000984710E0A36C73B1204698470BE01A68B1
:104B500012F4807F03D11A6822F008021A60236CD5
:104B60000BB120469847E26D20239340334255D045
:104B70002268126812F0100F50D0BB6094F83530E4
:104B8000DBB2052B0ED023681A6812F4802F33D0C5
:104B90001B6813F4002F2AD1636C002B3ED02046F3
:104BA00098473BE02268136823F0160313602268DD
:104BB000536923F080035361236CA3B12268136807
:104BC00023F008031360E26D3F239340BB60012391
:104BD00084F83530002384F83430236D002B3FD027
:104BE000204698473CE0A36C002BE7D1EBE7E36B52
:104BF000A3B12046984711E01A6812F4807F09D1CA
:104C00001A6822F010021A60012384F8353000235C
:104C100084F83430E36B0BB120469847636DFBB1E9
:104C2000636D13F0010F17D0052384F83530226827
:104C3000136823F001031360019B01330193AB421E
:104C400004D823681B6813F0010FF5D1012384F801
:104C50003530002384F83430E36C0BB1204698479C
:104C600003B0F0BD88000020B5814E1B00230F2B40
:104C700000F2E48070B582B060E085685E000324D5
:104C8000B44025EA0405CC68B4402C4384604568F0
:104C900025EA02054C68C4F300129A402A43426098
:104CA0005AE0DC08083450F8246003F0070295004D
:104CB0000F22AA4026EA020E0A69AA4042EA0E0220
:104CC00040F824205CE0072200E0002202FA0EF205
:104CD0002A4302345A4D45F824205A4A94686FEA10
:104CE0000C0224EA0C054E6816F4801F01D04CEA31
:104CF0000405544CA560E46802EA04054E6816F405
:104D0000001F01D04CEA04054E4CE560646802EADD
:104D100004054E6816F4003F01D04CEA0405494CE6
:104D20006560246822404D6815F4803F01D04CEA4C
:104D30000402444C226001330F2B7DD801229A409B
:104D40000C6804EA020C32EA0404F4D14C6804F062
:104D50000304013C012C90D94A6802F00302032AA3
:104D600009D0C4685D000322AA4024EA02048A68CC
:104D7000AA402243C2604A6802F00302022A90D08D
:104D800004684FEA430E032202FA0EF224EA0204F8
:104D90004A6802F0030202FA0EF2224302604A68F5
:104DA00012F4403FC7D000220192274A546C44F4C9
:104DB00080445464526C02F480420192019A9C082F
:104DC000A51C1F4A52F8255003F003024FEA820E39
:104DD0000F2202FA0EF225EA02051C4A90423FF425
:104DE00074AF02F5806290421AD002F58062904260
:104DF00018D002F58062904216D002F5806290428F
:104E000014D002F58062904212D002F58062904286
:104E100010D002F5806290423FF455AF082255E76A
:104E2000012253E7022251E703224FE704224DE714
:104E300005224BE7062249E702B070BD704700BF6C
:104E400000380140003C01400038024000000240B0
:104E50000AB181617047090481617047436901EAC1
:104E6000030221EA030141EA024181617047000027
:104E7000002800F0E08170B582B00446036813F0AA
:104E8000010F3BD09F4B9B6803F00C03042B2CD0ED
:104E90009C4B9B6803F00C03082B21D06368B3F58F
:104EA000803F4FD0B3F5A02F52D0964B1A6822F412
:104EB00080321A601A6822F480221A606368002B1C
:104EC00050D0FFF70BF805468E4B1B6813F4003FDC
:104ED00014D1FFF703F8401B6428F5D90320B1E192
:104EE000884B5B6813F4800FD8D0864B1B6813F493
:104EF000003F03D06368002B00F09F81236813F00C
:104F0000020F54D07F4B9B6813F00C0F3ED07D4BAB
:104F10009B6803F00C03082B33D0E368002B68D0A8
:104F2000794B01221A60FEF7D9FF0546754B1B68C5
:104F300013F0020F54D1FEF7D1FF401B0228F5D920
:104F400003207FE16F4A136843F480331360B5E7B1
:104F50006C4B1A6842F480221A601A6842F480325C
:104F60001A60ABE7FEF7BAFF0546664B1B6813F401
:104F7000003FC3D0FEF7B2FF401B6428F5D90320E1
:104F800060E1604B5B6813F4800FC6D15D4B1B681A
:104F900013F0020F03D0E368012B40F05081594A0F
:104FA000136823F0F803216943EAC10313602368FF
:104FB00013F0080F42D063696BB3534B0122C3F85F
:104FC000802EFEF78BFF05464E4B5B6F13F0020FF2
:104FD00034D1FEF783FF401B0228F5D9032031E1CD
:104FE000484A136823F0F803216943EAC1031360B8
:104FF000DDE7454B00221A60FEF770FF0546414B86
:105000001B6813F0020FD2D0FEF768FF401B022886
:10501000F5D9032016E13C4B0022C3F8802EFEF7A1
:105020005DFF0546374B5B6F13F0020F06D0FEF7AE
:1050300055FF401B0228F5D9032003E1236813F034
:10504000040F77D02F4B1B6C13F0805F33D10023FC
:1050500001932C4B1A6C42F080521A641B6C03F0C3
:1050600080530193019B0125284B1B6813F4807F1B
:1050700023D0A368012B34D0052B38D0214B1A6FD5
:1050800022F001021A671A6F22F004021A67A3685D
:10509000002B3DD0FEF722FF06461A4B1B6F13F084
:1050A000020F46D1FEF71AFF801B41F28833984267
:1050B000F3D90320C6E00025D6E7144A136843F469
:1050C00080731360FEF70AFF0646104B1B6813F44B
:1050D000807FCED1FEF702FF801B0228F5D9032086
:1050E000B0E0084A136F43F001031367CFE7054BA5
:1050F0001A6F42F004021A671A6F42F001021A672F
:10510000C5E700BF00380240000047420070004081
:10511000FEF7E4FE0646524B1B6F13F0020F08D059
:10512000FEF7DCFE801B41F288339842F3D903205E
:1051300088E0EDB9A369002B00F08380484A9268AB
:1051400002F00C02082A51D0022B17D0454B002246
:105150001A66FEF7C3FE0446414B1B6813F0007F3E
:1051600042D0FEF7BBFE001B0228F5D9032069E000
:105170003B4A136C23F080531364DBE7394B002266
:105180001A66FEF7ABFE0546354B1B6813F0007F31
:1051900006D0FEF7A3FE401B0228F5D9032051E0FC
:1051A000E369226A1343626A43EA8213A26A5208DD
:1051B000013A43EA0243E26A43EA0263284A53603F
:1051C000284B01221A66FEF789FE0446244B1B6811
:1051D00013F0007F06D1FEF781FE001B0228F5D9EF
:1051E00003202FE000202DE000202BE0012B2BD00E
:1051F0001B4B5B6803F48001E269914226D103F006
:105200003F02216A8A4223D1616A47F6C0721A407E
:10521000B2EB811F1ED103F44031A26A5208013A59
:10522000B1EB024F18D103F07063E26AB3EB026F87
:1052300014D1002006E001207047012002E0012087
:1052400000E0002002B070BD0120FBE70120F9E77B
:105250000120F7E70120F5E70120F3E70120F1E75E
:10526000003802400000474208B5314B9B6803F00C
:105270000C03042B57D0082B57D12D4B5A6802F042
:105280003F025B6813F4800F2AD0294B5968C1F3A1
:10529000881C4FEA4C11B1EB0C006EEB0E0E4FEA7E
:1052A0008E1343EA90638101091A63EB0E03DB005E
:1052B00043EA5173C90011EB0C0C43F1000359028E
:1052C00000234FEA4C2041EADC51FBF755F9184B1B
:1052D0005B68C3F3014301335B00B0FBF3F025E0EF
:1052E000134B5968C1F3881C4FEA4C11B1EB0C0009
:1052F0006EEB0E0E4FEA8E1343EA90638101091A9A
:1053000063EB0E03DB0043EA5173C90011EB0C0C95
:1053100043F10003990200234FEA8C2041EA9C519B
:10532000FBF72AF9D3E7034800E0034808BD00BFB4
:105330000038024000127A000024F400002800F037
:105340009B8070B50D4604464F4B1B6803F0070366
:105350008B4208D2CBB24C4A1370136803F0070398
:105360008B4240F08B80236813F0020F17D013F0AC
:10537000040F04D0454A936843F4E05393602368D4
:1053800013F0080F04D0414A936843F460439360DC
:105390003E4A936823F0F003A1680B4393602368AF
:1053A00013F0010F32D06368012B21D09A1E012A1D
:1053B00025D9364A126812F0020F61D033498A6843
:1053C00022F0030213438B60FEF788FD06462F4B45
:1053D0009B6803F00C036268B3EB820F16D0FEF7F4
:1053E0007DFD801B41F288339842F0D9032042E0D2
:1053F000264A126812F4003FE0D101203BE0234A24
:10540000126812F0007FD9D1012034E01E4B1B68D6
:1054100003F00703AB4207D9EAB21B4B1A701B68B3
:1054200003F00703AB422DD1236813F0040F06D01D
:10543000164A936823F4E053E1680B4393602368B2
:1054400013F0080F07D0114A936823F460432169D1
:1054500043EAC1039360FFF707FF0C4B9B68C3F35C
:1054600003130B4AD35CD8400A4B18600A4B1868E8
:10547000FDF79EFF002070BD012070470120FAE774
:105480000120F8E70120F6E7003C02400038024026
:1054900028EA00088800002090000020014B1868CE
:1054A000704700BF8800002008B5FFF7F7FF044BE6
:1054B0009B68C3F38223034AD35CD84008BD00BF76
:1054C0000038024038EA000808B5FFF7E7FF044B50
:1054D0009B68C3F34233034AD35CD84008BD00BF86
:1054E0000038024038EA00080F2303600B4B9A682B
:1054F00002F0030242609A6802F0F00282609A6849
:1055000002F4E052C2609B68DB0803F4E0530361DD
:10551000034B1B6803F007030B6070470038024021
:10552000003C02402DE9F04782B005468846174608
:105530001E46FEF7D3FC0A9B1B1A03EB0609FEF777
:10554000CDFC82462B4B1B68C3F3CB3309FB03F323
:1055500001932B689C6838EA04030CBF4FF0010CE0
:105560004FF0000CBC4540D0B6F1FF3FF1D0FEF744
:10557000B5FCA0EB0A0048450AD2B9F1000F07D0EC
:10558000019A02B14A46019B013B01939146E0E733
:105590002A68536823F0E00353606B68B3F5827F99
:1055A0000BD0AB6AB3F5005F14D0012385F85130FE
:1055B000002385F85030032018E0AB68B3F5004FA6
:1055C00002D0B3F5806FECD12A68136823F0400352
:1055D0001360E6E72A68136823F4005313602A680F
:1055E000136843F400531360DFE7002002B0BDE806
:1055F000F08700BF8800002010B584B00446164B29
:105600001868164BA3FB0030400D4FF47A7303FB70
:1056100000F003906368B3F5827F0BD0039BBBB1AE
:10562000039B013B039323689B6813F0800FF5D124
:1056300000200EE000920B46002280212046FFF75A
:1056400071FF30B1636D43F020036365032000E018
:10565000002004B010BD00BF88000020819F5E16AE
:1056600000285AD010B50446436A33B94368B3F5ED
:10567000827F05D00023C36102E000230361436100
:105680000023A36294F85130002B40D0022384F809
:1056900051302268136823F040031360636803F4F9
:1056A0008273A26802F404421343E26802F40062C7
:1056B0001343226902F002021343626902F00102FD
:1056C0001343A26902F400721343E26902F0380244
:1056D0001343226A02F080021343A26A02F40052CA
:1056E000216813430B60638B03F00403626A02F0CA
:1056F0001002216813434B602268D36923F40063CE
:10570000D36100206065012384F8513010BD84F816
:1057100050302046FDF72AFCB8E7012070472DE9FC
:10572000F04383B01F460A9D90F85030012B00F0E3
:105730001081044688469146012380F85030FEF7D8
:10574000CDFB064694F85130DBB26268012B0AD0DB
:10575000B2F5827F40F0E380A268002A40F0E98041
:10576000042B40F0E880B8F1000F00F0E680B9F1BA
:10577000000F00F0E480002F00F0E38094F8513037
:10578000DBB2042B02D0052384F85130002363657B
:10579000C4F83890E787A787C4F83080E786A786E3
:1057A0002364636423681A6812F0400F03D11A68F7
:1057B00042F040021A60E368B3F5006F11D06368ED
:1057C0000BB1012F0BD1226B236812781A73236B54
:1057D00001332363E38E9BB2013B9BB2E386012737
:1057E0006BE063680BB1012F0BD1226B2368128829
:1057F000DA60236B02332363E38E9BB2013B9BB2DF
:10580000E38601271CE023689A6812F0010F0ED08E
:10581000E28F92B25AB1DA68A36B1A80A36B02339B
:10582000A363E38F9BB2013B9BB2E3870127FEF7A3
:1058300055FB801BA84203D3B5F1FF3F40F08380A6
:10584000E38E9BB21BB9E38F9BB2002B53D023682E
:105850009A6812F0020FD6D0E28E92B2002AD2D00D
:10586000002FD0D0226B1288DA60236B02332363BF
:10587000E38E9BB2013B9BB2E3860027C3E723681C
:105880009A6812F0010F0ED0E28F92B25AB1DA6824
:10589000A36B1A70A36B0133A363E38F9BB2013B2D
:1058A0009BB2E3870127FEF719FB831BAB4202D3B0
:1058B000B5F1FF3F49D1002D49D0E38E9BB213B91A
:1058C000E38F9BB2BBB123689A6812F0020FD6D067
:1058D000E28E92B2002AD2D0002FD0D0226B127862
:1058E0001A73236B01332363E38E9BB2013B9BB29C
:1058F000E3860027C3E7324629462046FFF77CFEB1
:1059000048B9A36863B901932368DA6801929B6878
:105910000193019B04E020236365012000E0022045
:10592000012384F85130002384F8503003B0BDE8DF
:10593000F0830220F4E70220F2E70120F0E70120E3
:10594000EEE70120ECE70320EAE70320E8E7032085
:10595000E6E70220EAE7000030B4036A23F001031F
:105960000362036A4268846924F073040D682C435F
:1059700023F0020C8B6843EA0C03104DA84203D0BD
:1059800005F58065A84205D123F00803CD682B43B7
:1059900023F00403094DA84203D005F58065A84211
:1059A00005D122F440724D692A438D692A43426031
:1059B00084614A684263036230BC70470000014062
:1059C00030B4036A23F480730362036A4268C469D3
:1059D00024F0730C0C6844EA0C0523F400738C6803
:1059E00043EA0423114CA04203D004F58064A04292
:1059F00006D123F40063CC6843EA042323F48063D4
:105A00000A4CA04203D004F58064A04207D122F4DE
:105A100040524C6942EA04128C6942EA0412426024
:105A2000C5614A68C263036230BC70470000014030
:105A300030B4036A23F480530362036A4468C26982
:105A400022F4E6420D6842EA052223F400538D68F1
:105A500043EA0533094DA84203D005F58065A84205
:105A600004D124F480444D6944EA85144460C26141
:105A70004A680264036230BC704700BF0000014006
:105A800010B4036A046A24F001040462846924F0F7
:105A9000F00C4CEA021223F00A030B43826103620A
:105AA0005DF8044B704710B4046A24F010040462DB
:105AB0008469036A24F4704C4CEA023223F0A00398
:105AC00043EA0113826103625DF8044B7047836807
:105AD00023F070030B4343F007038360704700001B
:105AE00090F83D30DBB2012B37D1022380F83D30F6
:105AF0000268D36843F00103D3600368194A9342F4
:105B000020D0B3F1804F1DD0A2F57C42934219D032
